:100000000C946B010C949C010C949C010C949C012D
:100010000C949C010C949C010C949C010C949C01EC
:100020000C949C010C949C010C949C010C949C01DC
:100030000C949C010C94FB090C949C010C949C0165
:100040000C949C010C94AE0A0C949C010C949C01A1
:100050000C949C010C949C010C949C010C94B1098F
:100060000C949C010C947B090C9451090C949C01F8
:100070000C949C010C949C010C949C010C949C018C
:100080000C94800A0C949C010C949C010C949C018F
:100090000C949C010C949C010C949C010C949C016C
:1000A0000C949C010C949C010C94520A0C949C019D
:1000B0000C949C010C949C010C949C010C94240ABB
:1000C0000C949C010C949C010C949C010C949C013C
:1000D0000C949C010C949C010C949C010C949C012C
:1000E0000C949C010C9482030C9495030C94DA05F7
:1000F0000C9404060C947E030C9466040C94610228
:100100000C9496030C94C6040C948C030C942E0649
:100110000C94EE040C949A030C947F040C945E04EB
:100120000C9491040C9488030C9490030C94630336
:100130000C9424060C941E060C9403020C941C06CA
:100140000C9499020C946B040C9453020C94890443
:100150000C94F8040C94B7040C94D0040C94AD04E3
:100160000C946A030C9442060C9470030C943F02A6
:100170000C94E4050C94A3040C9499040C9455037A
:100180000C94DA040C94F2050C945F030C94300286
:100190000C94DC0A0C94E4040C947A030C943C0652
:1001A0000C9474030C94E6020C945B030C946703A8
:1001B0000C94750400000A0B02090C0D0E080703CD
:1001C000040100000000000000000000000000002A
:1001D000000000000000000000000000000000001F
:1001E00012111000000000000000000000000000DC
:1001F00000000000000000000000000021002400BA
:1002000027002A002D003000330001010000040106
:1002100007010A01000020002300260029002C000D
:100220002F00320000010000030106010901000057
:100230002200250028002B002E003100340002018E
:100240000000050108010B01050505050705080863
:100250000808020202020A0A080804040404010150
:100260000101010101010303030303030303040765
:1002700007070C0C0C0C0C0C0C0C020202020606FC
:100280000606060606060B0B0B0B0B0B0B0B0102EF
:100290001020200808102040102040800201020198
:1002A0000804020101020408102040808040201050
:1002B00008040201800402018040201008040201A9
:1002C0000804020101020408102040800102040811
:1002D00010204080DC0A11241FBECFEFD1E2DEBF28
:1002E000CDBF00E00CBF12E0A0E0B2E0E2EAF8E22D
:1002F00000E00BBF02C007900D92A633B107D9F7FB
:1003000024E0A6E3B2E001C01D92AF3AB207E1F7E4
:1003100011E0CBE6D1E000E006C021970109802F73
:10032000FE010E943314CA36D10780E00807A9F7FE
:100330000E94990C0C944F140C9400008F929F9281
:10034000AF92BF92FF920F931F93CF93DF93F090E2
:1003500078042FE22F1508F44CC020917A0408E5A8
:1003600012E0021B110927FD1395000F111F000F4A
:10037000111F20917904C8E8D0E0C21BD10927FDE4
:10038000D395CC0FDD1FCC0FDD1F4E010D2E000CC1
:10039000AA08BB089801012E000C440B550B281924
:1003A00039094A095B09DC010E94DA1324EB30E0C9
:1003B00040E050E00E94B013820E931EA41EB51EB2
:1003C0008C169D062CF0E801801691060CF4E401D1
:1003D0002297CC0FDD1F2FB7F8948F2D90E0FC01F2
:1003E000EE0FFF1FE80FF91FE658FC4FD283C183C1
:1003F0002FBFDF91CF911F910F91FF90BF90AF90D2
:100400009F908F900895AF92BF92CF92DF92EF921C
:10041000FF920F931F93CF93DF936C017B018B01AE
:10042000040F151FEB015E01AE18BF08C017D107FE
:1004300059F06991D601ED91FC910190F081E02D88
:10044000C6011995892B79F7C501DF91CF911F91CD
:100450000F91FF90EF90DF90CF90BF90AF900895F5
:10046000FC01538D448D252F30E0842F90E0821BBA
:10047000930B541710F0CF96089501970895FC013F
:10048000918D828D981761F0A28DAE0FBF2FB11D97
:100490005D968C91928D9F5F9F73928F90E00895EF
:1004A0008FEF9FEF0895FC01918D828D981731F0A9
:1004B000828DE80FF11D858D90E008958FEF9FEFFD
:1004C0000895FC01918D228D892F90E0805C9F4FD3
:1004D000821B91098F73992708958DED92E00E94F8
:1004E000610221E0892B09F420E0822F0895FC01AC
:1004F000A48DA80FB92FB11DA35ABF4F2C91848D85
:1005000090E001968F739927848FA689B7892C93E1
:10051000A089B1898C91837080648C93938D848D34
:10052000981306C00288F389E02D80818F7D808337
:100530000895EF92FF920F931F93CF93DF93EC01F7
:1005400081E0888F9B8D8C8D98131AC0E889F9897A
:10055000808185FF15C09FB7F894EE89FF8960837D
:10056000E889F98980818370806480839FBF81E0FE
:1005700090E0DF91CF911F910F91FF90EF90089540
:10058000F62E0B8D10E00F5F1F4F0F731127E02E1B
:100590008C8D8E110CC00FB607FCFACFE889F98953
:1005A000808185FFF5CFCE010E947702F1CFEB8DE0
:1005B000EC0FFD2FF11DE35AFF4FF0829FB7F89427
:1005C0000B8FEA89FB8980818062CFCFCF93DF9345
:1005D000EC01888D8823B9F0AA89BB89E889F9895B
:1005E0008C9185FD03C0808186FD0DC00FB607FC90
:1005F000F7CF8C9185FFF2CF808185FFEDCFCE01C3
:100600000E947702E9CFDF91CF91089580E090E0DA
:10061000892B29F00E946D0281110E94000080E068
:1006200090E0892B49F080E090E0892B29F00E942E
:10063000000081110E94000080E090E0892B49F0C9
:1006400080E090E0892B29F00E94000081110E9437
:10065000000080E090E0892B49F080E090E0892B59
:1006600029F00E94000081110C940000089581502F
:10067000823108F05AC0E82FF0E08827ED5BFC4F8C
:100680008F4F0C9433146303670355035B035F03BD
:1006900095036A03700374037A037E03820388035D
:1006A0008C039503900396039A03809180008F77C3
:1006B000809380000895809180008F7DF9CF809194
:1006C0008000877FF5CF84B58F7784BD089584B58A
:1006D0008F7DFBCF8091B0008F778093B00008951D
:1006E0008091B0008F7DF9CF809190008F778093BB
:1006F00090000895809190008F7DF9CF80919000B7
:10070000877FF5CF8091A0008F778093A000089518
:100710008091A0008F7DF9CF8091A000877FF5CFD9
:10072000809120018F77809320010895809120018E
:100730008F7DF9CF80912001877FF5CFCF93DF9315
:10074000282F30E0F901EC54FE4F8491F901E25773
:10075000FD4FD491F901E85BFD4FC491CC23A1F08A
:1007600081110E943703EC2FF0E0EE0FFF1FEC5ECB
:10077000FD4FA591B491EC91ED2381E090E009F457
:1007800080E0DF91CF91089580E090E0FACF1F9351
:10079000CF93DF93282F30E0F901EC54FE4F849182
:1007A000F901E257FD4FD491F901E85BFD4FC49187
:1007B000CC23A9F0162F81110E943703EC2FF0E013
:1007C000EE0FFF1FE25DFD4FA591B4918FB7F89436
:1007D000EC91111108C0D095DE23DC938FBFDF911F
:1007E000CF911F910895DE2BF8CFCF93DF9390E048
:1007F000FC01E257FD4F2491885B9D4FFC018491E1
:100800008823D1F090E0880F991FFC01E650FE4F3D
:10081000A591B491FC01E25DFD4FC591D4916111A8
:100820000EC09FB7F8948C91E22FE0958E238C93A5
:100830002881E223E8839FBFDF91CF9108958FB78E
:10084000F894EC91E22BEC938FBFF6CF1F93CF93EC
:10085000DF93182FEB0161E00E94F503209739F434
:1008600060E0812FDF91CF911F910C94C703CF3FA0
:10087000D10511F461E0F5CFE12FF0E0EC54FE4F2B
:10088000E491E150E23108F0B3C0F0E08827E45B86
:10089000FB4F8F4F0C9433145E0466046B04750495
:1008A0007F04F804890491049904A304AD04B704F7
:1008B000C604D004F804DA04E404EE0484B58068C5
:1008C00084BDC7BDDF91CF911F91089584B580622B
:1008D00084BDC8BDF7CF8091800080688093800080
:1008E000D0938900C0938800EDCF80918000806212
:1008F00080938000D0938B00C0938A00E3CF8091D7
:100900008000886080938000D0938D00C0938C001D
:10091000D9CF8091B00080688093B000C093B300BD
:10092000D1CF8091B00080628093B000C093B400BA
:10093000C9CF80919000806880939000D0939900F7
:10094000C0939800BFCF8091900080628093900008
:10095000D0939B00C0939A00B5CF8091900088609F
:1009600080939000D0939D00C0939C00ABCF80916A
:10097000A00080688093A0008091A0008F7B80936E
:10098000A000D093A900C093A8009CCF8091A000A4
:1009900080628093A000D093AB00C093AA0092CF56
:1009A0008091A00088608093A000D093AD00C09398
:1009B000AC0088CF80912001806880932001D09383
:1009C0002901C09328017ECF80912001806280930D
:1009D0002001D0932B01C0932A0174CF8091200174
:1009E000886080932001D0932D01C0932C016ACFA1
:1009F000C038D1050CF03ECF33CF3FB7F89480918B
:100A0000490290914A02A0914B02B0914C0226B546
:100A1000A89B05C02F3F19F00196A11DB11D3FBF36
:100A2000BA2FA92F982F8827BC01CD01620F711D05
:100A3000811D911D42E0660F771F881F991F4A95FF
:100A4000D1F708958F929F92AF92BF92CF92DF928B
:100A5000EF92FF926B017C010E94FD044B015C014F
:100A6000C114D104E104F104B9F00E94FD04681935
:100A700079098A099B09683E73408105910580F3D5
:100A800021E0C21AD108E108F10888EE880E83E05F
:100A9000981EA11CB11CE4CFFF90EF90DF90CF9087
:100AA000BF90AF909F908F9008950F931F93CF9317
:100AB000DF93EC018B0188859985029751F46130B1
:100AC000710509F43AC06CF560E00115110509F4EF
:100AD00035C088859985049751F40130110509F4D2
:100AE00055C00CF035C00115110509F43EC08885CC
:100AF0009985059709F0C8C00A30110508F0C4C0EF
:100B0000F8018827E957FA4F8F4F0C943314DA0510
:100B1000E405F20504061C061E0624062E063C0605
:100B200042066230710591F060E00330110589F6EC
:100B30008C850E94C70360E005C061E08C850E943F
:100B4000C70361E08E850E94C703C3CF61E0F0CF89
:100B50000230110509F10330110509F0C8CF61E039
:100B60008C850E94C70360E01CC061E08C850E94F8
:100B7000C70360E08E850E94C70361E088890E94F8
:100B8000C70360E08A890E94C703B1CF60E08C850B
:100B90000E94C70361E0EECF60E08C850E94C7032E
:100BA00061E08E850E94C70360E088890E94C703C8
:100BB00061E0E8CF60E08C850E94C70361E08E852C
:100BC0000E94C70361E009C060E08C850E94C703F2
:100BD00061E08E850E94C70360E088890E94C70398
:100BE00060E00DC060E08C850E94C70361E08E85E7
:100BF0000E94C70360E088890E94C70361E08A8978
:100C00000E94C70361E011C060E08C850E94C703A9
:100C100061E08E850E94C70360E088890E94C70357
:100C200061E08A890E94C70360E08C89DF91CF91DF
:100C30001F910F910C94C70361E0E7CF61E08C85B1
:100C40000E94C70360E0E5CF61E08C850E94C70386
:100C500060E08E850E94C70361E0DFCF61E08C8594
:100C60000E94C70360E08E850E94C70361E0888907
:100C70000E94C70360E0D5CF61E08C850E94C70366
:100C800060E09DCF60E0F9CFDF91CF911F910F9190
:100C900008954F925F926F927F928F929F92AF9240
:100CA000BF92CF92DF92EF92FF920F931F93CF9359
:100CB000DF93EC018B0177FF04C000271127061B8F
:100CC000170B161617060CF04AC081E090E09983C6
:100CD000888384E0E82EF12C9AE0C92ED12C0115EE
:100CE000110509F44EC00E94FD048E889F88A88CCF
:100CF000B98C2B013C01481859086A087B088A8086
:100D00009B80AC80BD80481459046A047B0438F38E
:100D10006E8B7F8B888F998F8A859B8528813981FF
:100D20002130310511F501969B878A872E813F81FD
:100D30008217930711F41B861A86015011098A85C0
:100D40009B8528853985B6012530310509F0B70125
:100D50000E941F14BC01CE010E945505C0CF672B15
:100D600009F4B7CF19821882B4CF892B21F48E8170
:100D70009F819B878A878A859B8501979B878A8726
:100D8000DCCFDF91CF911F910F91FF90EF90DF901B
:100D9000CF90BF90AF909F908F907F906F905F901B
:100DA0004F9008958130910581F41092800082E087
:100DB000809381001092850010928400B19A8091F6
:100DC0006F00826080936F0008958230910569F40E
:100DD0001092900082E08093910010929500109202
:100DE000940088BB8093710008958330910569F465
:100DF0001092A00082E08093A1001092A5001092B2
:100E0000A40089BB809372000895892B61F410922D
:100E1000200182E08093210110922501109224018B
:100E20008ABB809373000895AF92BF92CF92DF92F6
:100E3000EF92FF920F931F93CF93DF936B017A0191
:100E4000EC01C05CDD4F28813CE0389F8001399F78
:100E5000100D1124A0900A04B12C27FF1FC0FB0124
:100E60001182108288818F5F888388819801280F82
:100E7000311D87FD3A95F6012A153B051CF4888142
:100E80008C30C4F180819181049680349C4908F4AF
:100E900073C0F60180819181049670C088819801A9
:100EA000280F311D87FD3A952A153B05DCF6888110
:100EB000A801480F511D87FD5A95FA01EE0FFF1F3B
:100EC000E40FF51FE658FC4F808186FFCBCF888169
:100ED000F801E80FF11D87FDFA95CF01EE0FFF1F16
:100EE000E80FF91FE658FC4F808160E08F730E9485
:100EF000C703B8CF808191812881A801420F511D7D
:100F000027FD5A959A01FA01EE0FFF1FE20FF31F1A
:100F1000E658FC4F21813281820F931FF7019183A4
:100F2000808388819801280F311D87FD3A95F9014A
:100F3000EE0FFF1FE20FF31FE658FC4F808186FF84
:100F400022C08881080F111D87FD1A95F801EE0F48
:100F5000FF1FE00FF11FE658FC4F808161E08F73A7
:100F6000DF91CF911F910F91FF90EF90DF90CF9085
:100F7000BF90AF900C94C70380E49CE9F701918384
:100F800080838FEF8883DF91CF911F910F91FF9026
:100F9000EF90DF90CF90BF90AF900895CF92DF9207
:100FA000EF92FF920F931F93CF93DF931F921F92A5
:100FB000CDB7DEB769834A83880F991F009161041A
:100FC00010916204000F111FEBE0F4E09F012B5021
:100FD00034402017310714F41192F8CF2981FC0115
:100FE000E55FFB4F21838A81808360E080915F040D
:100FF0000E94C7031016110604F501501109F801EB
:10100000E55FFB4FE080D0905D04C0905B0488E01A
:10101000F82E6E2D661F6627661F8C2D0E94C70353
:10102000EE0C61E08D2D0E94C70360E08D2D0E94C3
:10103000C703FA94F110EDCFDDCF61E080915F043A
:101040000F900F90DF91CF911F910F91FF90EF9034
:10105000DF90CF900C94C703EF92FF920F931F93F2
:10106000CF937C018C0183E0000F111F8A95E1F77B
:10107000055E1B4FC1E0F80111928F0140E06C2F1B
:10108000C7010E94CE07CF5FC930A9F7CF911F914A
:101090000F91FF90EF90089520913E0230913F0212
:1010A0002A3531053CF42F5F3F4F30933F022093A8
:1010B0003E02089520910402309105028B3F910574
:1010C000BCF121303105C9F41092050210920402DE
:1010D00030933D0220933C0280913A0290913B0272
:1010E00084309105ACF4019690933B0280933A02D0
:1010F0001092CE021092CD02089581E090E090937C
:1011000005028093040210923D0210923C02E4CF4B
:1011100080916104909162041816190624F490E0FD
:1011200080E00E942C0810923B0210923A02E0CF1D
:101130002130310509F5209102023091030280919E
:10114000060290910702820F931FAC014F5F5F4F21
:101150004930510560F031952195310930930302F2
:101160002093020210923F0210923E020895909343
:10117000070280930602F6CF80913C0290913D02D7
:10118000019781F7209100023091010280910802BD
:1011900090910902820F931FAC014F5F5F4F49305E
:1011A000510540F03195219531093093010220938A
:1011B0000002D8CF9093090280930802D3CFFC019C
:1011C00001900020E9F73197AF01481B590BBC0192
:1011D0008DED92E00C9403028F929F92AF92BF929A
:1011E0000F931F93CF93DF93CDB7DEB7A1970FB6C1
:1011F000F894DEBF0FBECDBF19A2423008F44AE01A
:101200008E010F5D1F4F842E912CB12CA12CA501B6
:1012100094010E94E213E62FB901CA01EA30F4F406
:10122000E05DD801EE938D01232B242B252B79F73C
:1012300090E080E0109719F0CD010E94DF08A196A0
:101240000FB6F894DEBF0FBECDBFDF91CF911F91D7
:101250000F91BF90AF909F908F900895E95CE1CF80
:10126000CF92DF92EF92FF92CF93DF936B017C01DD
:101270006DE28DED92E00E949902EC0166277727DE
:10128000CB016C197D098E099F094AE00E94EC0888
:101290008C0F9D1FDF91CF91FF90EF90DF90CF904B
:1012A00008951F920F920FB60F9211240BB60F9252
:1012B0002F933F934F935F936F937F938F939F935E
:1012C000AF93BF93EF93FF938DED92E00E9477026F
:1012D000FF91EF91BF91AF919F918F917F916F910E
:1012E0005F914F913F912F910F900BBE0F900FBECA
:1012F0000F901F9018951F920F920FB60F92112406
:101300000BB60F922F938F939F93EF93FF93E091E0
:10131000ED02F091EE028081E091F302F091F4028F
:1013200082FD1DC090818091F6028F5F8F732091A6
:10133000F702821741F0E091F602F0E0E352FD4F30
:10134000958F8093F602FF91EF919F918F912F914E
:101350000F900BBE0F900FBE0F901F9018958081BD
:10136000F2CF1F920F920FB60F9211242F933F933B
:101370008F939F93AF93BF938091450290914602C4
:10138000A0914702B09148023091440223E0230F1C
:101390002D3758F50196A11DB11D2093440280936D
:1013A000450290934602A0934702B0934802809171
:1013B000490290914A02A0914B02B0914C020196D1
:1013C000A11DB11D8093490290934A02A0934B0244
:1013D000B0934C02BF91AF919F918F913F912F910C
:1013E0000F900FBE0F901F90189526E8230F0296BE
:1013F000A11DB11DD2CF1F920F920FB60F921124D3
:101400000BB60F922F933F934F935F936F937F93FE
:101410008F939F93AF93BF93EF93FF93F0E0E0E040
:101420001995FF91EF91BF91AF919F918F917F910E
:101430006F915F914F913F912F910F900BBE0F9045
:101440000FBE0F901F9018951F920F920FB60F921C
:1014500011240BB60F922F933F934F935F936F938B
:101460007F938F939F93AF93BF93EF93FF9348E244
:1014700051E064E271E090E080E00E941407FF9187
:10148000EF91BF91AF919F918F917F916F915F91FC
:101490004F913F912F910F900BBE0F900FBE0F9069
:1014A0001F9018951F920F920FB60F9211240BB632
:1014B0000F922F933F934F935F936F937F938F93ED
:1014C0009F93AF93BF93EF93FF9348EA50E064EA92
:1014D00070E083E090E00E941407FF91EF91BF91CC
:1014E000AF919F918F917F916F915F914F913F91BC
:1014F0002F910F900BBE0F900FBE0F901F9018955D
:101500001F920F920FB60F9211240BB60F922F93CA
:101510003F934F935F936F937F938F939F93AF937B
:10152000BF93EF93FF9348E950E064E970E082E0F5
:1015300090E00E941407FF91EF91BF91AF919F91AE
:101540008F917F916F915F914F913F912F910F906C
:101550000BBE0F900FBE0F901F9018951F920F9209
:101560000FB60F9211240BB60F922F933F934F9308
:101570005F936F937F938F939F93AF93BF93EF93FB
:10158000FF9348E850E064E870E081E090E00E945A
:101590001407FF91EF91BF91AF919F918F917F9130
:1015A0006F915F914F913F912F910F900BBE0F90D4
:1015B0000FBE0F901F9018950F931F93CF93DF933B
:1015C0001092E0021092DF0288EE93E0A0E0B0E01B
:1015D0008093E1029093E202A093E302B093E402CD
:1015E0008EE092E09093DE028093DD0285EC90E045
:1015F0009093EA028093E90284EC90E09093EC02ED
:101600008093EB0280EC90E09093EE028093ED02E9
:1016100081EC90E09093F0028093EF0282EC90E0F6
:101620009093F2028093F10286EC90E09093F402A2
:101630008093F3021092F6021092F7021092F802D1
:101640001092F9021092A00410929F041092960436
:10165000109295041092AB041092AC041092AD0459
:101660001092AE0404E110E010939C0400939B04DC
:101670008FE290E09093A2048093A10481E390E034
:101680009093A4048093A30483E390E09093A60432
:101690008093A50485E390E09093A8048093A70429
:1016A00061E08FE20E94F50361E08091A3040E9453
:1016B000F50361E08091A5040E94F50361E080914B
:1016C000A7040E94F5031092AA041092A904C4E092
:1016D000D0E0D0939E04C0939D0410928604109293
:1016E000850410927C0410927B0410929104109255
:1016F0009204109293041092940410938204009325
:1017000081048FE190E0909388048093870481E2C4
:1017100090E090938A048093890483E290E0909310
:101720008C0480938B0485E290E090938E048093E8
:101730008D0461E08FE10E94F50361E080918904EE
:101740000E94F50361E080918B040E94F50361E043
:1017500080918D040E94F5031092900410928F04E2
:10176000D0938404C093830480910A04803308F0EA
:10177000D3C091E0980F90930A048093780490E08E
:10178000FC01EE0FFF1FE80FF91FE658FC4F88EB36
:101790009BE09283818380910A04803308F0C0C06B
:1017A00091E0980F90930A048093750490E0FC01F7
:1017B000EE0FFF1FE80FF91FE658FC4F88EB9BE088
:1017C00092838183E1E9F2E0E491E0936704E0E948
:1017D000F2E0E491E09368048BE492E0FC01249150
:1017E000E22FF0E0EE0FFF1FE25DFD4F25913491F7
:1017F00030936A0420936904EAE4F2E0E491F0E0B3
:10180000EE0FFF1FEC5EFD4F2591349130936C0479
:1018100020936B04FC018491E82FF0E0EE0FFF1F92
:10182000E650FE4F8591949190936E0480936D04E1
:1018300081EC9CE29093700480936F04C9E1D0E046
:10184000D0935C04C0935B0487E190E090935E04C6
:1018500080935D048BE190E09093600480935F043B
:1018600081E090E0909362048093610461E089E1FB
:101870000E94F50361E080915D040E94F50361E040
:1018800080915F040E94F50361E080915F040E94F3
:10189000C703D0935C04C0935B04EBE1F4E08BE5F9
:1018A00094E011928E179F07E1F7D0E0C0E080919D
:1018B000610490916204C817D907B4F540E06FE065
:1018C000CE010E94CE078091610490916204C817F6
:1018D000D9072CF447E06BE0CE010E94CE0740E030
:1018E00069E0CE010E94CE0780916104909162046C
:1018F000C817D9071CF4CE010E942C0880916104FE
:1019000090916204C817D9072CF440E06CE0CE0136
:101910000E94CE072196CBCF8FEF809378043BCFE8
:101920008FEF809375044ECFDF91CF911F910F9170
:101930000895CF93DF93CDB7DEB72D970FB6F89408
:10194000DEBF0FBECDBF789484B5826084BD84B500
:10195000816084BD85B5826085BD85B5816085BDAA
:1019600080916E00816080936E0010928100809162
:1019700081008260809381008091810081608093EA
:101980008100809180008160809380008091B1000F
:1019900084608093B1008091B00081608093B0003A
:1019A000809191008260809391008091910081608C
:1019B000809391008091900081608093900080914D
:1019C000A10082608093A1008091A100816080933A
:1019D000A1008091A00081608093A00080912101EE
:1019E0008260809321018091210181608093210197
:1019F0008091200181608093200180917A00846031
:101A000080937A0080917A00826080937A0080913E
:101A10007A00816080937A0080917A008068809358
:101A20007A001092C10061E087E00E94F50361E056
:101A300086E00E94F50361E085E00E94F50361E025
:101A400084E00E94F50360E08DE00E94F50360E011
:101A50008CE00E94F50360E08BE00E94F50361E0FA
:101A60008AE00E94F50361E089E00E94F50361E0ED
:101A700083E00E94F50360E082E00E94F50360E0ED
:101A800086E30E94F50360E083E00E94C703809133
:101A90007804803308F045C061E08BE20E94F503D2
:101AA00080917804282F30E0F901EE0FFF1FE20F3C
:101AB000F31FE658FC4F9081907C9B62908395E7E2
:101AC0009093790494E690937A042CE0622F0E941C
:101AD000131490E0829FB001112430E020E0AB01AC
:101AE000420F531FFA01EE0FFF1FE40FF51FE658D8
:101AF000FC4F408146FD07C02F5F3F4F2C30310522
:101B000071F70E94D206E09178048E2F90E0FC01DC
:101B1000EE0FFF1FE80FF91FE658FC4F808180642D
:101B2000808390E080E00E949E0180917504803364
:101B300008F043C061E088E00E94F50380917504DD
:101B4000282F30E0F901EE0FFF1FE20FF31FE658D8
:101B5000FC4F9081907C9860908310927604109254
:101B600077042CE0622F0E94131490E0829FB00152
:101B7000112430E020E0AB01420F531FFA01EE0FB9
:101B8000FF1FE40FF51FE658FC4F408146FD07C0DC
:101B90002F5F3F4F2C30310571F70E94D206E09144
:101BA00075048E2F90E0FC01EE0FFF1FE80FF91F68
:101BB000E658FC4F80818064808320919B043091A3
:101BC0009C04032E000C440B550BC12C97E8D92E16
:101BD00093E9E92E93E0F92EC701B6010E94B013F4
:101BE0006CE2862E99249394A12CB12CCA01B901E0
:101BF000A50194010E94B013209397043093980498
:101C00004093990450939A04209181043091820466
:101C1000032E000C440B550BC701B6010E94B013F4
:101C2000CA01B901A50194010E94B01320937D045B
:101C300030937E0440937F0450938004E091ED0242
:101C4000F091EE0282E08083E091E902F091EA02F5
:101C50001082E091EB02F091EC028FEC8083109205
:101C6000F502E091F102F091F20286E08083E091CA
:101C7000EF02F091F002808180618083E091EF02B9
:101C8000F091F002808188608083E091EF02F09112
:101C9000F002808180688083E091EF02F091F00291
:101CA00080818F7D808380916104909162041816F9
:101CB000190634F441E06CE090E080E00E94CE0729
:101CC00080916104909162041816190634F44AE078
:101CD0006AE090E080E00E94CE07809161049091DC
:101CE00062041816190624F490E080E00E942C0883
:101CF00012E0812E912C03E2202E312C88EE482E0A
:101D000083E0582E612C712C6091060270910702BD
:101D1000A0900802B0900902BDE4CB2EB2E0DB2E09
:101D2000A60190E080E0FA0130E020E011921192EB
:101D30006217730761F4A816B90649F48F010250BF
:101D40001109EE24E394F12CD801ED92FC922F5F5F
:101D50003F4F2830310551F70196405F5F4F883083
:101D6000910509F710E000E05601F12CE12C9801F3
:101D7000255F3B4F3C872B8731E0300F3D87D501F6
:101D80008D919D915D010197C9F4809161049091BD
:101D900062041816190694F4EB85FC85408980E8E6
:101DA00090E00E2C02C0959587950A94E2F7482B97
:101DB000408B6D8590E080E00E94CE07FFEFEF1A28
:101DC000FF0A28E0E216F104D1F662E070E080E05C
:101DD00090E00E9422050F5F1F4F30E1C30ED11C1F
:101DE0000830110509F68DE00E949E036C01909366
:101DF000D8028093D7028CE00E949E037C019093CE
:101E0000D6028093D5028BE00E949E038C019093B2
:101E1000D4028093D30241E0C416D10409F040C13A
:101E200051E0E516F10409F094C38130910509F4FD
:101E300055C0892B09F082C08091CD029091CE02CD
:101E40009C012F5F3F4F3093CE022093CD020E9422
:101E50004C086EE170E08AE00E942604A090CF0258
:101E6000B090D002B50168537F4F89E00E942604EC
:101E700061E087E00E94C70360E086E00E94C7033C
:101E800061E085E00E94C70360E084E00E94C70330
:101E900064E670E080E090E00E94220562E370E07A
:101EA0008AE00E942604B5016C597F4F89E00E94A8
:101EB000260461E087E00E94C70360E086E00E949C
:101EC000C70361E085E00E94C70360E084E00E94F0
:101ED000C703F092D202E092D10230C090E080E0DD
:101EE0000E944C088091D1029091D20281309105DC
:101EF00009F0BBC060E570E08AE00E94260465E559
:101F000070E089E00E94260461E087E00E94C70338
:101F100060E086E00E94C70360E085E00E94C7039E
:101F200061E084E00E94C7031092D0021092CF02B9
:101F30006CEB72E080E090E00E94220582E10E945A
:101F40009E03019709F0C0C18091DB029091DC02F1
:101F5000843191050CF45DC261E083E00E94C70307
:101F6000C1010197F1F760E083E00E94C7031A8284
:101F7000198225E0B22EA12C0E94FD046B017C0188
:101F8000E0916D04F0916E04808190916704892B3B
:101F90008083E0916904F0916A04908180916704E4
:101FA0008095892380838BE090E00197F1F7E091A1
:101FB0006904F0916A04808190916704892B808381
:101FC000C1010197F1F7E0916904F0916A049081F1
:101FD00080916704809589238083E0916D04F0915E
:101FE0006E04908180916704809589238083E091BD
:101FF0006B04F0916C04808190916804892399F5B9
:102000000E94FD04AB01BC0180916F0490917004AB
:10201000B0E0A0E08855994EAF4FBF4F840F951F99
:10202000A61FB71F8093710490937204A09373044A
:10203000B0937404E0916B04F0916C0480819091F2
:102040006804892309F0EBC10E94FD04209171040A
:10205000309172044091730450917404261737072D
:102060004807590738F7BA9444C2029709F066CF77
:1020700065E570E08AE00E94260460E570E089E092
:102080000E94260460E087E00E94C70361E086E0CA
:102090000E94C70361E085E00E94C70360E041CF72
:1020A000C114D10409F04ACFE114F10409F085C04C
:1020B000892B09F055C08091D1029091D2028130D4
:1020C000910541F561E470E08AE00E94260462E334
:1020D00070E089E00E94260460E087E00E94C70368
:1020E00061E086E00E94C70360E085E00E94C703CC
:1020F00061E084E00E94C7031092D0021092CF02E8
:102100006FE070E080E090E00E942205E114F104AD
:1021100039F114CF029721F562E370E08AE00E9462
:10212000260461E470E089E00E94260460E087E014
:102130000E94C70361E086E00E94C70360E085E07B
:102140000E94C70361E084E00E94C7031092D0029E
:102150001092CF026FE070E080E090E00E942205D4
:102160000130110509F0EACE8091CD029091CE02A6
:102170009C012F5F3F4F3093CE022093CD020E94EF
:102180004C086091CF027091D0026F567F4F8AE069
:102190000E94260468E270E089E00E94260461E063
:1021A00087E00E94C70360E086E00E94C70360E00A
:1021B00085E00E94C70361E058C081E0E816F104A1
:1021C00009F0BCCE0115110509F457C00130110505
:1021D00009F0B4CE8091CD029091CE029C012F5F88
:1021E0003F4F3093CE022093CD020E944C08A09026
:1021F000CF02B090D002B50168537F4F8AE00E94B1
:1022000026046EE170E089E00E94260461E087E028
:102210000E94C70360E086E00E94C70361E085E09A
:102220000E94C70360E084E00E94C70364E670E098
:1022300080E090E00E942205B5016C597F4F8AE052
:102240000E942604B5016E5C7F4F89E00E9426043F
:1022500061E087E00E94C70360E086E00E94C70358
:1022600061E085E00E94C70360E084E00E94C7034C
:102270009092D2028092D10261CE90E080E00E94E2
:102280004C0864E670E08AE00E94260464E670E090
:1022900089E00E94260461E087E00E94C70360E0B5
:1022A00086E00E94C70361E085E00E94C70360E00A
:1022B00084E00E94C7031092D0021092CF021092C5
:1022C000D2021092D10222CF83E10E949E03019795
:1022D00009F43ACE91E0C916D104D1F5A1E0EA168D
:1022E000F10409F06EC101301105B9F0012B69F557
:1022F00060E870E085E994E00E94490660E071E0E2
:102300008BE794E00E94490660E870E085E994E07C
:102310000E94490660E071E00FC08091D102909167
:10232000D2028130910569F460E071E085E994E0C2
:102330000E94490660E07FEF8BE794E00E94490627
:1023400004C060E07FEF029709F30E940603DCCC33
:10235000CD28D9F7E114F10499F50115110521F5FE
:102360008091D1029091D2028130910579F460E0A0
:102370007FEF85E994E00E94490660E07FEF8BE7FC
:1023800094E00E944906EF2801F70EC0029761F41D
:1023900060E071E085E994E00E94490660E071E048
:1023A0008BE794E00E9449060130110571F660E068
:1023B00072E085E994E00E94490660E470E0BCCFD9
:1023C000B1E0EB16F10409F601151105C9F0013071
:1023D000110509F0BACF60E071E085E994E00E9450
:1023E000490660E870E08BE794E00E94490660E0EF
:1023F00071E085E994E00E94490660E870E09CCFB6
:1024000060E071E085E994E00E94490660E071E0D7
:10241000B6CF01969093DC028093DB0296CF0E94A8
:10242000FD0420916F0430917004620F731F811DB1
:10243000911D609371047093720480937304909360
:102440007404E0916B04F0916C04808190916804B5
:10245000892381F00E94FD0420917104309172045F
:1024600040917304509174042617370748075907A1
:1024700040F7F9CD0E94FD0420916F043091700463
:10248000A901455051092091710430917204FA015B
:10249000E21BF30BAF01460F571F4115510509F41D
:1024A000E2CDAA20C1F0AA2DB0E0AA0FBB1F129660
:1024B00021E030E02C0F3D1FA20FB31F2A2DCD01CC
:1024C0000497FC01808191818417950728F49E93DD
:1024D0008E932150A1F720E0E22FF0E0EE0FFF1FD6
:1024E00021E030E02C0F3D1FE20FF31F51834083AA
:1024F000A394AB1408F074C00E94FD046C197D090C
:102500008E099F09683471478105910508F034CD23
:102510000E94FD0448E4C40E41E7D41EE11CF11CF6
:10252000A7019601261B370B480B590BCA01B901AD
:10253000A30192010E94E213CA01B9010E9422057F
:102540001BCD4AE00E94EC086DC04AE00E94EC08F6
:10255000E1C0E114F10409F0F1CC0115110509F015
:10256000EDCC8091CD029091CE029C012F5F3F4F28
:102570003093CE022093CD020E944C0868E270E0B6
:102580008AE00E9426046091CF027091D0026F56BB
:102590007F4F89E00E94260460E087E00E94C70325
:1025A00061E086E00E94C70361E085E00E94C70306
:1025B00060E084E00E94C703D092D202C092D102B0
:1025C000BDCCEF2809F0C1CE012B09F0BECE60E4EE
:1025D00070E085E994E00E94490660E072E0ACCECC
:1025E000EB2DEE7F41E050E04C0F5D1F4E0F511D73
:1025F000FA01808191810FB6F894DEBF0FBECDBF86
:1026000069E370E00E941F148B018AE292E00E944D
:10261000DF08B801012E000C880B990B17FF91CF32
:102620000E9430098CE192E00E94DF088FE192E085
:102630000E94DF08015011090530110508F08BC018
:1026400069E670E08AE00E94260469E670E089E0AD
:102650000E94260461E087E00E94C70360E086E0F4
:102660000E94C70360E085E00E94C70361E084E048
:102670000E94C70360ED77E080E090E00E942205B1
:1026800070E060E08AE00E94260470E060E089E08B
:102690000E94260460E087E00E94C70360E086E0B5
:1026A0000E94C70360E085E00E94C70360E084E009
:1026B0000E94C70364EF71E080E090E00E94220571
:1026C00083E10E949E03019709F045C082E292E0F7
:1026D0000E94DF0880917B00877F80937B0080E4ED
:1026E00080937C0080917A00806480937A0080914E
:1026F0007A0086FDFCCF9091780080917900382F88
:10270000292FB901032E000C880B990B37FF1DCF21
:102710000E9430098FE192E00E94DF088091D90287
:102720009091DA0201969093DA028093D90284EBB9
:1027300090E00E949E0168E873E180E090E00E94D2
:10274000220590E080E00E949E0168E873E180E04D
:1027500090E00E9422051092DC021092DB02F5CD7F
:10276000052E97FB1EF400940E94C71357FD07D057
:102770000E94E21307FC03D04EF40C94C71350954B
:102780004095309521953F4F4F4F5F4F089590955D
:102790008095709561957F4F8F4F9F4F08950E9450
:1027A0000414A59F900DB49F900DA49F800D911DC2
:1027B00011240895B7FF0C94CF130E94CF13821BEE
:1027C000930B0895A1E21A2EAA1BBB1BFD010DC09D
:1027D000AA1FBB1FEE1FFF1FA217B307E407F507D1
:1027E00020F0A21BB30BE40BF50B661F771F881FAD
:1027F000991F1A9469F760957095809590959B0143
:10280000AC01BD01CF010895A29FB001B39FC001EB
:10281000A39F700D811D1124911DB29F700D811D0C
:102820001124911D0895991B79E004C0991F9617F2
:1028300008F0961B881F7A95C9F78095089597FB35
:10284000072E16F4009407D077FD09D00E943B14A0
:1028500007FC05D03EF4909581959F4F08957095A3
:1028600061957F4F0895EE0FFF1F881F8BBF079064
:10287000F691E02D1994AA1BBB1B51E107C0AA1FBA
:10288000BB1FA617B70710F0A61BB70B881F991F11
:102890005A95A9F780959095BC01CD010895F894BB
:0228A000FFCF68
:1028A2000100010001000300030000000000990282
:1028B20003023002E60261023F025302636D000D21
:1028C2000A00436F6C6F723A200044697374616E40
:0628D2006369613A200079
:00000001FF
